{
  "contractName": "Auth",
  "abi": [
    {
      "anonymous": false,
      "inputs": [
        {
          "indexed": true,
          "internalType": "string",
          "name": "username",
          "type": "string"
        }
      ],
      "name": "UserRegistered",
      "type": "event"
    },
    {
      "inputs": [
        {
          "internalType": "string",
          "name": "_username",
          "type": "string"
        },
        {
          "internalType": "string",
          "name": "_password",
          "type": "string"
        }
      ],
      "name": "register",
      "outputs": [],
      "stateMutability": "nonpayable",
      "type": "function"
    },
    {
      "inputs": [
        {
          "internalType": "string",
          "name": "_username",
          "type": "string"
        },
        {
          "internalType": "string",
          "name": "_password",
          "type": "string"
        }
      ],
      "name": "authenticate",
      "outputs": [
        {
          "internalType": "bool",
          "name": "",
          "type": "bool"
        }
      ],
      "stateMutability": "view",
      "type": "function"
    }
  ],
  "bytecode": "0x6080604052348015600e575f80fd5b506109758061001c5f395ff3fe608060405234801561000f575f80fd5b5060043610610034575f3560e01c80633ffbd47f14610038578063544541b314610054575b5f80fd5b610052600480360381019061004d91906104e4565b610084565b005b61006e600480360381019061006991906104e4565b610196565b60405161007b9190610574565b60405180910390f35b5f808360405161009491906105df565b90815260200160405180910390205f0180546100af90610622565b9050146100f1576040517f08c379a00000000000000000000000000000000000000000000000000000000081526004016100e8906106ac565b60405180910390fd5b6040518060400160405280838152602001828152505f8360405161011591906105df565b90815260200160405180910390205f820151815f0190816101369190610870565b50602082015181600101908161014c9190610870565b509050508160405161015e91906105df565b60405180910390207f270ff4b111e5baa49283562af127cc5ea74e9d6c9efd5465578bd9223d5843f060405160405180910390a25050565b5f805f846040516101a791906105df565b90815260200160405180910390206040518060400160405290815f820180546101cf90610622565b80601f01602080910402602001604051908101604052809291908181526020018280546101fb90610622565b80156102465780601f1061021d57610100808354040283529160200191610246565b820191905f5260205f20905b81548152906001019060200180831161022957829003601f168201915b5050505050815260200160018201805461025f90610622565b80601f016020809104026020016040519081016040528092919081815260200182805461028b90610622565b80156102d65780601f106102ad576101008083540402835291602001916102d6565b820191905f5260205f20905b8154815290600101906020018083116102b957829003601f168201915b5050505050815250509050836040516020016102f291906105df565b60405160208183030381529060405280519060200120815f015160405160200161031c91906105df565b6040516020818303038152906040528051906020012014801561038e57508260405160200161034b91906105df565b60405160208183030381529060405280519060200120816020015160405160200161037691906105df565b60405160208183030381529060405280519060200120145b91505092915050565b5f604051905090565b5f80fd5b5f80fd5b5f80fd5b5f80fd5b5f601f19601f8301169050919050565b7f4e487b71000000000000000000000000000000000000000000000000000000005f52604160045260245ffd5b6103f6826103b0565b810181811067ffffffffffffffff82111715610415576104146103c0565b5b80604052505050565b5f610427610397565b905061043382826103ed565b919050565b5f67ffffffffffffffff821115610452576104516103c0565b5b61045b826103b0565b9050602081019050919050565b828183375f83830152505050565b5f61048861048384610438565b61041e565b9050828152602081018484840111156104a4576104a36103ac565b5b6104af848285610468565b509392505050565b5f82601f8301126104cb576104ca6103a8565b5b81356104db848260208601610476565b91505092915050565b5f80604083850312156104fa576104f96103a0565b5b5f83013567ffffffffffffffff811115610517576105166103a4565b5b610523858286016104b7565b925050602083013567ffffffffffffffff811115610544576105436103a4565b5b610550858286016104b7565b9150509250929050565b5f8115159050919050565b61056e8161055a565b82525050565b5f6020820190506105875f830184610565565b92915050565b5f81519050919050565b5f81905092915050565b8281835e5f83830152505050565b5f6105b98261058d565b6105c38185610597565b93506105d38185602086016105a1565b80840191505092915050565b5f6105ea82846105af565b915081905092915050565b7f4e487b71000000000000000000000000000000000000000000000000000000005f52602260045260245ffd5b5f600282049050600182168061063957607f821691505b60208210810361064c5761064b6105f5565b5b50919050565b5f82825260208201905092915050565b7f5573657220616c726561647920726567697374657265640000000000000000005f82015250565b5f610696601783610652565b91506106a182610662565b602082019050919050565b5f6020820190508181035f8301526106c38161068a565b9050919050565b5f819050815f5260205f209050919050565b5f6020601f8301049050919050565b5f82821b905092915050565b5f600883026107267fffffffffffffffffffffffffffffffffffffffffffffffffffffffffffffffff826106eb565b61073086836106eb565b95508019841693508086168417925050509392505050565b5f819050919050565b5f819050919050565b5f61077461076f61076a84610748565b610751565b610748565b9050919050565b5f819050919050565b61078d8361075a565b6107a16107998261077b565b8484546106f7565b825550505050565b5f90565b6107b56107a9565b6107c0818484610784565b505050565b5b818110156107e3576107d85f826107ad565b6001810190506107c6565b5050565b601f821115610828576107f9816106ca565b610802846106dc565b81016020851015610811578190505b61082561081d856106dc565b8301826107c5565b50505b505050565b5f82821c905092915050565b5f6108485f198460080261082d565b1980831691505092915050565b5f6108608383610839565b9150826002028217905092915050565b6108798261058d565b67ffffffffffffffff811115610892576108916103c0565b5b61089c8254610622565b6108a78282856107e7565b5f60209050601f8311600181146108d8575f84156108c6578287015190505b6108d08582610855565b865550610937565b601f1984166108e6866106ca565b5f5b8281101561090d578489015182556001820191506020850194506020810190506108e8565b8683101561092a5784890151610926601f891682610839565b8355505b6001600288020188555050505b50505050505056fea2646970667358221220e65e4ab672aaceadee3dc7e0a7e3d5dc5ed275f9cd31381fcb35c73d6be3e98e64736f6c634300081a0033",
  "immutableReferences": {},
  "source": "// SPDX-License-Identifier: MIT\r\npragma solidity ^0.8.0;\r\n\r\ncontract Auth {\r\n    struct User {\r\n        string username;\r\n        string password;\r\n    }\r\n\r\n    mapping(string => User) private users;\r\n\r\n    event UserRegistered(string indexed username);\r\n\r\n    function register(string memory _username, string memory _password) public {\r\n        require(bytes(users[_username].username).length == 0, \"User already registered\");\r\n\r\n        users[_username] = User(_username, _password);\r\n\r\n        emit UserRegistered(_username);\r\n    }\r\n\r\n    function authenticate(string memory _username, string memory _password) public view returns (bool) {\r\n        User memory user = users[_username];\r\n        return keccak256(abi.encodePacked(user.username)) == keccak256(abi.encodePacked(_username)) &&\r\n               keccak256(abi.encodePacked(user.password)) == keccak256(abi.encodePacked(_password));\r\n    }\r\n}\r\n",
  "sourcePath": "C:\\Users\\muska\\Desktop\\Project\\Major Project\\auth-system\\contracts\\UserRegistry.sol",
  "compiler": {
    "name": "solc",
    "version": "0.8.26+commit.8a97fa7a.Emscripten.clang"
  },
  "schemaVersion": "3.4.16",
  "updatedAt": "2024-06-20T10:36:40.995Z",
  "devdoc": {
    "kind": "dev",
    "methods": {},
    "version": 1
  },
  "userdoc": {
    "kind": "user",
    "methods": {},
    "version": 1
  }
}