{
  "contractName": "UserRegistry",
  "abi": [
    {
      "anonymous": false,
      "inputs": [
        {
          "indexed": true,
          "internalType": "address",
          "name": "userAddress",
          "type": "address"
        }
      ],
      "name": "UserAuthenticated",
      "type": "event"
    },
    {
      "anonymous": false,
      "inputs": [
        {
          "indexed": true,
          "internalType": "address",
          "name": "userAddress",
          "type": "address"
        }
      ],
      "name": "UserRegistered",
      "type": "event"
    },
    {
      "inputs": [
        {
          "internalType": "address",
          "name": "",
          "type": "address"
        }
      ],
      "name": "users",
      "outputs": [
        {
          "internalType": "bool",
          "name": "isRegistered",
          "type": "bool"
        },
        {
          "internalType": "bytes32",
          "name": "passwordHash",
          "type": "bytes32"
        }
      ],
      "stateMutability": "view",
      "type": "function"
    },
    {
      "inputs": [
        {
          "internalType": "bytes32",
          "name": "_passwordHash",
          "type": "bytes32"
        }
      ],
      "name": "register",
      "outputs": [],
      "stateMutability": "nonpayable",
      "type": "function"
    },
    {
      "inputs": [
        {
          "internalType": "bytes32",
          "name": "_passwordHash",
          "type": "bytes32"
        }
      ],
      "name": "authenticate",
      "outputs": [
        {
          "internalType": "bool",
          "name": "",
          "type": "bool"
        }
      ],
      "stateMutability": "view",
      "type": "function"
    }
  ],
  "bytecode": "0x6080604052348015600e575f80fd5b5061053e8061001c5f395ff3fe608060405234801561000f575f80fd5b506004361061003f575f3560e01c80635704069e14610043578063a87430ba14610073578063e1fa8e84146100a4575b5f80fd5b61005d6004803603810190610058919061030f565b6100c0565b60405161006a9190610354565b60405180910390f35b61008d600480360381019061008891906103c7565b61015e565b60405161009b929190610401565b60405180910390f35b6100be60048036038101906100b9919061030f565b610189565b005b5f805f803373ffffffffffffffffffffffffffffffffffffffff1673ffffffffffffffffffffffffffffffffffffffff1681526020019081526020015f209050805f015f9054906101000a900460ff1661014f576040517f08c379a000000000000000000000000000000000000000000000000000000000815260040161014690610482565b60405180910390fd5b82816001015414915050919050565b5f602052805f5260405f205f91509050805f015f9054906101000a900460ff16908060010154905082565b5f803373ffffffffffffffffffffffffffffffffffffffff1673ffffffffffffffffffffffffffffffffffffffff1681526020019081526020015f205f015f9054906101000a900460ff1615610214576040517f08c379a000000000000000000000000000000000000000000000000000000000815260040161020b906104ea565b60405180910390fd5b6040518060400160405280600115158152602001828152505f803373ffffffffffffffffffffffffffffffffffffffff1673ffffffffffffffffffffffffffffffffffffffff1681526020019081526020015f205f820151815f015f6101000a81548160ff021916908315150217905550602082015181600101559050503373ffffffffffffffffffffffffffffffffffffffff167f54db7a5cb4735e1aac1f53db512d3390390bb6637bd30ad4bf9fc98667d9b9b960405160405180910390a250565b5f80fd5b5f819050919050565b6102ee816102dc565b81146102f8575f80fd5b50565b5f81359050610309816102e5565b92915050565b5f60208284031215610324576103236102d8565b5b5f610331848285016102fb565b91505092915050565b5f8115159050919050565b61034e8161033a565b82525050565b5f6020820190506103675f830184610345565b92915050565b5f73ffffffffffffffffffffffffffffffffffffffff82169050919050565b5f6103968261036d565b9050919050565b6103a68161038c565b81146103b0575f80fd5b50565b5f813590506103c18161039d565b92915050565b5f602082840312156103dc576103db6102d8565b5b5f6103e9848285016103b3565b91505092915050565b6103fb816102dc565b82525050565b5f6040820190506104145f830185610345565b61042160208301846103f2565b9392505050565b5f82825260208201905092915050565b7f55736572206e6f742072656769737465726564000000000000000000000000005f82015250565b5f61046c601383610428565b915061047782610438565b602082019050919050565b5f6020820190508181035f83015261049981610460565b9050919050565b7f5573657220616c726561647920726567697374657265640000000000000000005f82015250565b5f6104d4601783610428565b91506104df826104a0565b602082019050919050565b5f6020820190508181035f830152610501816104c8565b905091905056fea2646970667358221220f5b39dc10244bbacefba2e47153e3ec62a46f07aecff2b9bb8ff87b4369e70e464736f6c634300081a0033",
  "immutableReferences": {},
  "source": "// SPDX-License-Identifier: MIT\r\npragma solidity ^0.8.0;\r\n\r\ncontract UserRegistry {\r\n    struct User {\r\n        bool isRegistered;\r\n        bytes32 passwordHash;\r\n    }\r\n\r\n    mapping(address => User) public users;\r\n\r\n    event UserRegistered(address indexed userAddress);\r\n    event UserAuthenticated(address indexed userAddress);\r\n\r\n    function register(bytes32 _passwordHash) public {\r\n        require(!users[msg.sender].isRegistered, \"User already registered\");\r\n        \r\n        users[msg.sender] = User(true, _passwordHash);\r\n        emit UserRegistered(msg.sender);\r\n    }\r\n\r\n    function authenticate(bytes32 _passwordHash) public view returns (bool) {\r\n        User storage user = users[msg.sender];\r\n        require(user.isRegistered, \"User not registered\");\r\n\r\n        return (user.passwordHash == _passwordHash);\r\n    }\r\n}\r\n",
  "sourcePath": "C:\\Users\\muska\\Desktop\\Project\\Major Project\\auth-system\\contracts\\UserRegistry.sol",
  "compiler": {
    "name": "solc",
    "version": "0.8.26+commit.8a97fa7a.Emscripten.clang"
  },
  "schemaVersion": "3.4.16",
  "updatedAt": "2024-06-19T08:06:47.718Z",
  "devdoc": {
    "kind": "dev",
    "methods": {},
    "version": 1
  },
  "userdoc": {
    "kind": "user",
    "methods": {},
    "version": 1
  }
}